{
  "contractName": "BlockPoem",
  "abi": [
    {
      "constant": true,
      "inputs": [],
      "name": "numberOfLikes",
      "outputs": [
        {
          "name": "",
          "type": "uint256"
        }
      ],
      "payable": false,
      "stateMutability": "view",
      "type": "function"
    },
    {
      "constant": true,
      "inputs": [],
      "name": "poem",
      "outputs": [
        {
          "name": "",
          "type": "string"
        }
      ],
      "payable": false,
      "stateMutability": "view",
      "type": "function"
    },
    {
      "constant": true,
      "inputs": [],
      "name": "extraMessage",
      "outputs": [
        {
          "name": "",
          "type": "string"
        }
      ],
      "payable": false,
      "stateMutability": "view",
      "type": "function"
    },
    {
      "inputs": [
        {
          "name": "_thePoem",
          "type": "string"
        },
        {
          "name": "_theWriter",
          "type": "address"
        }
      ],
      "payable": false,
      "stateMutability": "nonpayable",
      "type": "constructor"
    },
    {
      "constant": false,
      "inputs": [],
      "name": "stopContract",
      "outputs": [],
      "payable": false,
      "stateMutability": "nonpayable",
      "type": "function"
    },
    {
      "constant": false,
      "inputs": [],
      "name": "resumeContract",
      "outputs": [],
      "payable": false,
      "stateMutability": "nonpayable",
      "type": "function"
    },
    {
      "constant": true,
      "inputs": [],
      "name": "verifyOwner",
      "outputs": [
        {
          "name": "",
          "type": "address"
        }
      ],
      "payable": false,
      "stateMutability": "view",
      "type": "function"
    },
    {
      "constant": false,
      "inputs": [
        {
          "name": "_extraMessage",
          "type": "string"
        }
      ],
      "name": "addMessage",
      "outputs": [],
      "payable": false,
      "stateMutability": "nonpayable",
      "type": "function"
    },
    {
      "constant": false,
      "inputs": [],
      "name": "like",
      "outputs": [],
      "payable": false,
      "stateMutability": "nonpayable",
      "type": "function"
    },
    {
      "constant": false,
      "inputs": [],
      "name": "donate",
      "outputs": [],
      "payable": true,
      "stateMutability": "payable",
      "type": "function"
    }
  ],
  "bytecode": "0x60806040526000600460006101000a81548160ff02191690831515021790555034801561002b57600080fd5b50604051610a87380380610a87833981018060405281019080805182019291906020018051906020019092919050505081600090805190602001906100719291906100c7565b5080600460016101000a81548173ffffffffffffffffffffffffffffffffffffffff021916908373ffffffffffffffffffffffffffffffffffffffff160217905550655af3107a4000600381905550505061016c565b828054600181600116156101000203166002900490600052602060002090601f016020900481019282601f1061010857805160ff1916838001178555610136565b82800160010185558215610136579182015b8281111561013557825182559160200191906001019061011a565b5b5090506101439190610147565b5090565b61016991905b8082111561016557600081600090555060010161014d565b5090565b90565b61090c8061017b6000396000f300608060405260043610610099576000357c0100000000000000000000000000000000000000000000000000000000900463ffffffff16806312253a6c1461009e57806333476e36146100b55780636a226a491461010c5780637855e92714610175578063a523b88a146101a0578063ac0ed738146101b7578063c4bc5da514610247578063e279cfdc1461025e578063ed88c68e146102ee575b600080fd5b3480156100aa57600080fd5b506100b36102f8565b005b3480156100c157600080fd5b506100ca610371565b604051808273ffffffffffffffffffffffffffffffffffffffff1673ffffffffffffffffffffffffffffffffffffffff16815260200191505060405180910390f35b34801561011857600080fd5b50610173600480360381019080803590602001908201803590602001908080601f0160208091040260200160405190810160405280939291908181526020018383808284378201915050505050509192919290505050610413565b005b34801561018157600080fd5b5061018a6104a5565b6040518082815260200191505060405180910390f35b3480156101ac57600080fd5b506101b56104ab565b005b3480156101c357600080fd5b506101cc6105ee565b6040518080602001828103825283818151815260200191508051906020019080838360005b8381101561020c5780820151818401526020810190506101f1565b50505050905090810190601f1680156102395780820380516001836020036101000a031916815260200191505b509250505060405180910390f35b34801561025357600080fd5b5061025c61068c565b005b34801561026a57600080fd5b50610273610705565b6040518080602001828103825283818151815260200191508051906020019080838360005b838110156102b3578082015181840152602081019050610298565b50505050905090810190601f1680156102e05780820380516001836020036101000a031916815260200191505b509250505060405180910390f35b6102f66107a3565b005b3373ffffffffffffffffffffffffffffffffffffffff16600460019054906101000a900473ffffffffffffffffffffffffffffffffffffffff1673ffffffffffffffffffffffffffffffffffffffff1614151561035457600080fd5b6001600460006101000a81548160ff021916908315150217905550565b60003373ffffffffffffffffffffffffffffffffffffffff16600460019054906101000a900473ffffffffffffffffffffffffffffffffffffffff1673ffffffffffffffffffffffffffffffffffffffff161415156103cf57600080fd5b600460009054906101000a900460ff161515156103eb57600080fd5b600460019054906101000a900473ffffffffffffffffffffffffffffffffffffffff16905090565b3373ffffffffffffffffffffffffffffffffffffffff16600460019054906101000a900473ffffffffffffffffffffffffffffffffffffffff1673ffffffffffffffffffffffffffffffffffffffff1614151561046f57600080fd5b600460009054906101000a900460ff1615151561048b57600080fd5b80600190805190602001906104a192919061083b565b5050565b60025481565b3373ffffffffffffffffffffffffffffffffffffffff16600460019054906101000a900473ffffffffffffffffffffffffffffffffffffffff1673ffffffffffffffffffffffffffffffffffffffff161415151561050857600080fd5b60001515600560003373ffffffffffffffffffffffffffffffffffffffff1673ffffffffffffffffffffffffffffffffffffffff16815260200190815260200160002060009054906101000a900460ff16151514151561056757600080fd5b600460009054906101000a900460ff1615151561058357600080fd5b6001600560003373ffffffffffffffffffffffffffffffffffffffff1673ffffffffffffffffffffffffffffffffffffffff16815260200190815260200160002060006101000a81548160ff0219169083151502179055506001600260008282540192505081905550565b60008054600181600116156101000203166002900480601f0160208091040260200160405190810160405280929190818152602001828054600181600116156101000203166002900480156106845780601f1061065957610100808354040283529160200191610684565b820191906000526020600020905b81548152906001019060200180831161066757829003601f168201915b505050505081565b3373ffffffffffffffffffffffffffffffffffffffff16600460019054906101000a900473ffffffffffffffffffffffffffffffffffffffff1673ffffffffffffffffffffffffffffffffffffffff161415156106e857600080fd5b6000600460006101000a81548160ff021916908315150217905550565b60018054600181600116156101000203166002900480601f01602080910402602001604051908101604052809291908181526020018280546001816001161561010002031660029004801561079b5780601f106107705761010080835404028352916020019161079b565b820191906000526020600020905b81548152906001019060200180831161077e57829003601f168201915b505050505081565b600460009054906101000a900460ff161515156107bf57600080fd5b60035434101515156107d057600080fd5b600460019054906101000a900473ffffffffffffffffffffffffffffffffffffffff1673ffffffffffffffffffffffffffffffffffffffff166108fc349081150290604051600060405180830381858888f19350505050158015610838573d6000803e3d6000fd5b50565b828054600181600116156101000203166002900490600052602060002090601f016020900481019282601f1061087c57805160ff19168380011785556108aa565b828001600101855582156108aa579182015b828111156108a957825182559160200191906001019061088e565b5b5090506108b791906108bb565b5090565b6108dd91905b808211156108d95760008160009055506001016108c1565b5090565b905600a165627a7a7230582053dd0a75d54ea02d78e4b736685b3cb6e0ba3e4547dc8c08f77547aa4d17b64b0029",
  "source": "pragma solidity ^0.4.24;\n\ncontract BlockPoem {\n  string public poem;\n  string public extraMessage;\n  uint public numberOfLikes;\n  uint private minimumDonation;\n  bool isStopped = false;\n\n  address private writer;\n  mapping(address => bool) private fans;\n\n  // Modifiers\n  /** @dev Ensures only the writer can call.\n    */\n  modifier onlyOwner() {\n    require(writer == msg.sender);\n    _;\n  }\n\n  /** @dev Ensures the writer cannot call.\n    */\n  modifier notOwner() {\n    require(writer != msg.sender);\n    _;\n  }\n\n  /** @dev Ensures a fan of a poem cannot call.\n    */\n  modifier notFan() {\n    require(fans[msg.sender] == false);\n    _;\n  }\n\n  /** @dev Circuit breaker modifier.\n    */\n  modifier notStopped() {\n    require(!isStopped);\n    _;\n  }\n\n  /** @dev Constructor. Makes sure the writer is the account interacting with factory,\n      not the factory itself\n    */\n  constructor(string _thePoem, address _theWriter) public {\n    poem = _thePoem;\n    writer = _theWriter;\n    minimumDonation = 100000000000000;\n  }\n\n  /** @dev Circuit breaker methods.\n    */\n  function stopContract() public onlyOwner {\n        isStopped = true;\n    }\n\n  function resumeContract() public onlyOwner {\n      isStopped = false;\n    }\n\n  /** @dev Returns the writer's address.\n    */\n  function verifyOwner() onlyOwner notStopped public view returns (address) {\n    return writer;\n  }\n\n  /** @dev Adds an extra message to the BlockPoem.\n    * @param _extraMessage The poem's extra message text.\n    */\n  function addMessage(string _extraMessage) onlyOwner notStopped public {\n    extraMessage = _extraMessage;\n  }\n\n  /** @dev Increments the BlockPoem's number of likes and adds a fan to its mapping.\n    */\n  function like() notOwner notFan notStopped public {\n    fans[msg.sender] = true;\n    numberOfLikes += 1;\n  }\n\n  /** @dev Donates ether to the BlockPoem's writer.\n    */\n  function donate() public payable notStopped {\n    require(msg.value >= minimumDonation);\n    writer.transfer(msg.value);\n  }\n}\n",
  "sourcePath": "/Users/diegomartin1/BlockPoems/contracts/BlockPoem.sol",
  "compiler": {
    "name": "solc",
    "version": "0.4.24+commit.e67f0147.Emscripten.clang"
  },
  "schemaVersion": "2.0.0",
  "updatedAt": "2018-08-18T16:47:22.309Z"
}