{
  "contractName": "BlockPoem",
  "abi": [
    {
      "constant": true,
      "inputs": [],
      "name": "numberOfLikes",
      "outputs": [
        {
          "name": "",
          "type": "uint256"
        }
      ],
      "payable": false,
      "stateMutability": "view",
      "type": "function"
    },
    {
      "constant": true,
      "inputs": [],
      "name": "poem",
      "outputs": [
        {
          "name": "",
          "type": "string"
        }
      ],
      "payable": false,
      "stateMutability": "view",
      "type": "function"
    },
    {
      "constant": true,
      "inputs": [],
      "name": "extraMessage",
      "outputs": [
        {
          "name": "",
          "type": "string"
        }
      ],
      "payable": false,
      "stateMutability": "view",
      "type": "function"
    },
    {
      "inputs": [
        {
          "name": "_thePoem",
          "type": "string"
        }
      ],
      "payable": false,
      "stateMutability": "nonpayable",
      "type": "constructor"
    },
    {
      "anonymous": false,
      "inputs": [
        {
          "indexed": false,
          "name": "fan",
          "type": "address"
        }
      ],
      "name": "Like",
      "type": "event"
    },
    {
      "anonymous": false,
      "inputs": [
        {
          "indexed": false,
          "name": "amount",
          "type": "uint256"
        }
      ],
      "name": "Donation",
      "type": "event"
    },
    {
      "constant": false,
      "inputs": [
        {
          "name": "_extraMessage",
          "type": "string"
        }
      ],
      "name": "addMessage",
      "outputs": [],
      "payable": false,
      "stateMutability": "nonpayable",
      "type": "function"
    },
    {
      "constant": false,
      "inputs": [],
      "name": "like",
      "outputs": [],
      "payable": false,
      "stateMutability": "nonpayable",
      "type": "function"
    },
    {
      "constant": false,
      "inputs": [],
      "name": "donate",
      "outputs": [],
      "payable": true,
      "stateMutability": "payable",
      "type": "function"
    }
  ],
  "bytecode": "0x608060405234801561001057600080fd5b506040516107b53803806107b5833981018060405281019080805182019291905050508060009080519060200190610049929190610091565b5033600360006101000a81548173ffffffffffffffffffffffffffffffffffffffff021916908373ffffffffffffffffffffffffffffffffffffffff16021790555050610136565b828054600181600116156101000203166002900490600052602060002090601f016020900481019282601f106100d257805160ff1916838001178555610100565b82800160010185558215610100579182015b828111156100ff5782518255916020019190600101906100e4565b5b50905061010d9190610111565b5090565b61013391905b8082111561012f576000816000905550600101610117565b5090565b90565b610670806101456000396000f300608060405260043610610078576000357c0100000000000000000000000000000000000000000000000000000000900463ffffffff1680636a226a491461007d5780637855e927146100e6578063a523b88a14610111578063ac0ed73814610128578063e279cfdc146101b8578063ed88c68e14610248575b600080fd5b34801561008957600080fd5b506100e4600480360381019080803590602001908201803590602001908080601f0160208091040260200160405190810160405280939291908181526020018383808284378201915050505050509192919290505050610252565b005b3480156100f257600080fd5b506100fb6102c8565b6040518082815260200191505060405180910390f35b34801561011d57600080fd5b506101266102ce565b005b34801561013457600080fd5b5061013d6103f8565b6040518080602001828103825283818151815260200191508051906020019080838360005b8381101561017d578082015181840152602081019050610162565b50505050905090810190601f1680156101aa5780820380516001836020036101000a031916815260200191505b509250505060405180910390f35b3480156101c457600080fd5b506101cd610496565b6040518080602001828103825283818151815260200191508051906020019080838360005b8381101561020d5780820151818401526020810190506101f2565b50505050905090810190601f16801561023a5780820380516001836020036101000a031916815260200191505b509250505060405180910390f35b610250610534565b005b3373ffffffffffffffffffffffffffffffffffffffff16600360009054906101000a900473ffffffffffffffffffffffffffffffffffffffff1673ffffffffffffffffffffffffffffffffffffffff161415156102ae57600080fd5b80600190805190602001906102c492919061059f565b5050565b60025481565b3373ffffffffffffffffffffffffffffffffffffffff16600360009054906101000a900473ffffffffffffffffffffffffffffffffffffffff1673ffffffffffffffffffffffffffffffffffffffff161415151561032b57600080fd5b6000600460003373ffffffffffffffffffffffffffffffffffffffff1673ffffffffffffffffffffffffffffffffffffffff16815260200190815260200160002060006101000a81548160ff0219169083151502179055151561038d57600080fd5b6001600460003373ffffffffffffffffffffffffffffffffffffffff1673ffffffffffffffffffffffffffffffffffffffff16815260200190815260200160002060006101000a81548160ff0219169083151502179055506001600260008282540192505081905550565b60008054600181600116156101000203166002900480601f01602080910402602001604051908101604052809291908181526020018280546001816001161561010002031660029004801561048e5780601f106104635761010080835404028352916020019161048e565b820191906000526020600020905b81548152906001019060200180831161047157829003601f168201915b505050505081565b60018054600181600116156101000203166002900480601f01602080910402602001604051908101604052809291908181526020018280546001816001161561010002031660029004801561052c5780601f106105015761010080835404028352916020019161052c565b820191906000526020600020905b81548152906001019060200180831161050f57829003601f168201915b505050505081565b600360009054906101000a900473ffffffffffffffffffffffffffffffffffffffff1673ffffffffffffffffffffffffffffffffffffffff166108fc349081150290604051600060405180830381858888f1935050505015801561059c573d6000803e3d6000fd5b50565b828054600181600116156101000203166002900490600052602060002090601f016020900481019282601f106105e057805160ff191683800117855561060e565b8280016001018555821561060e579182015b8281111561060d5782518255916020019190600101906105f2565b5b50905061061b919061061f565b5090565b61064191905b8082111561063d576000816000905550600101610625565b5090565b905600a165627a7a72305820121fb88f8313c33601d6869e96151b53503c19132e776038458149b5730810a60029",
  "source": "pragma solidity ^0.4.24;\n\ncontract BlockPoem {\n  string public poem;\n  string public extraMessage;\n  uint public numberOfLikes;\n\n  address private writer;\n  mapping(address => bool) private fans;\n\n  // Events\n  event Like(address fan);\n  event Donation(uint amount);\n\n  // Modifiers\n  modifier onlyOwner() {\n    require(writer == msg.sender);\n    _;\n  }\n\n  modifier notOwner() {\n    require(writer != msg.sender);\n    _;\n  }\n\n  constructor(string _thePoem) {\n    poem = _thePoem;\n    writer = msg.sender;\n  }\n\n  function addMessage(string _extraMessage) onlyOwner public {\n    extraMessage = _extraMessage;\n  }\n\n  function like() notOwner public {\n    require(fans[msg.sender] = false);\n    fans[msg.sender] = true;\n    numberOfLikes += 1;\n  }\n\n  function donate() public payable {\n    writer.transfer(msg.value);\n  }\n}\n",
  "sourcePath": "/Users/diegomartin1/BlockPoems/contracts/BlockPoem.sol",
  "compiler": {
    "name": "solc",
    "version": "0.4.24+commit.e67f0147.Emscripten.clang"
  },
  "schemaVersion": "2.0.0",
  "updatedAt": "2018-08-12T14:17:05.476Z"
}