{
  "contractName": "BlockPoem",
  "abi": [
    {
      "constant": true,
      "inputs": [],
      "name": "numberOfLikes",
      "outputs": [
        {
          "name": "",
          "type": "uint256"
        }
      ],
      "payable": false,
      "stateMutability": "view",
      "type": "function"
    },
    {
      "constant": true,
      "inputs": [],
      "name": "poem",
      "outputs": [
        {
          "name": "",
          "type": "string"
        }
      ],
      "payable": false,
      "stateMutability": "view",
      "type": "function"
    },
    {
      "constant": true,
      "inputs": [],
      "name": "extraMessage",
      "outputs": [
        {
          "name": "",
          "type": "string"
        }
      ],
      "payable": false,
      "stateMutability": "view",
      "type": "function"
    },
    {
      "inputs": [
        {
          "name": "_thePoem",
          "type": "string"
        },
        {
          "name": "_theWriter",
          "type": "address"
        }
      ],
      "payable": false,
      "stateMutability": "nonpayable",
      "type": "constructor"
    },
    {
      "anonymous": false,
      "inputs": [
        {
          "indexed": false,
          "name": "fan",
          "type": "address"
        }
      ],
      "name": "Like",
      "type": "event"
    },
    {
      "anonymous": false,
      "inputs": [
        {
          "indexed": false,
          "name": "amount",
          "type": "uint256"
        }
      ],
      "name": "Donation",
      "type": "event"
    },
    {
      "constant": true,
      "inputs": [],
      "name": "verifyOwner",
      "outputs": [
        {
          "name": "",
          "type": "address"
        }
      ],
      "payable": false,
      "stateMutability": "view",
      "type": "function"
    },
    {
      "constant": false,
      "inputs": [
        {
          "name": "_extraMessage",
          "type": "string"
        }
      ],
      "name": "addMessage",
      "outputs": [],
      "payable": false,
      "stateMutability": "nonpayable",
      "type": "function"
    },
    {
      "constant": false,
      "inputs": [],
      "name": "like",
      "outputs": [],
      "payable": false,
      "stateMutability": "nonpayable",
      "type": "function"
    },
    {
      "constant": false,
      "inputs": [],
      "name": "donate",
      "outputs": [],
      "payable": true,
      "stateMutability": "payable",
      "type": "function"
    }
  ],
  "bytecode": "0x608060405234801561001057600080fd5b506040516108c63803806108c6833981018060405281019080805182019291906020018051906020019092919050505081600090805190602001906100569291906100ac565b5080600460006101000a81548173ffffffffffffffffffffffffffffffffffffffff021916908373ffffffffffffffffffffffffffffffffffffffff160217905550655af3107a40006003819055505050610151565b828054600181600116156101000203166002900490600052602060002090601f016020900481019282601f106100ed57805160ff191683800117855561011b565b8280016001018555821561011b579182015b8281111561011a5782518255916020019190600101906100ff565b5b509050610128919061012c565b5090565b61014e91905b8082111561014a576000816000905550600101610132565b5090565b90565b610766806101606000396000f300608060405260043610610083576000357c0100000000000000000000000000000000000000000000000000000000900463ffffffff16806333476e36146100885780636a226a49146100df5780637855e92714610148578063a523b88a14610173578063ac0ed7381461018a578063e279cfdc1461021a578063ed88c68e146102aa575b600080fd5b34801561009457600080fd5b5061009d6102b4565b604051808273ffffffffffffffffffffffffffffffffffffffff1673ffffffffffffffffffffffffffffffffffffffff16815260200191505060405180910390f35b3480156100eb57600080fd5b50610146600480360381019080803590602001908201803590602001908080601f016020809104026020016040519081016040528093929190818152602001838380828437820191505050505050919291929050505061033a565b005b34801561015457600080fd5b5061015d6103b0565b6040518082815260200191505060405180910390f35b34801561017f57600080fd5b506101886103b6565b005b34801561019657600080fd5b5061019f6104dd565b6040518080602001828103825283818151815260200191508051906020019080838360005b838110156101df5780820151818401526020810190506101c4565b50505050905090810190601f16801561020c5780820380516001836020036101000a031916815260200191505b509250505060405180910390f35b34801561022657600080fd5b5061022f61057b565b6040518080602001828103825283818151815260200191508051906020019080838360005b8381101561026f578082015181840152602081019050610254565b50505050905090810190601f16801561029c5780820380516001836020036101000a031916815260200191505b509250505060405180910390f35b6102b2610619565b005b60003373ffffffffffffffffffffffffffffffffffffffff16600460009054906101000a900473ffffffffffffffffffffffffffffffffffffffff1673ffffffffffffffffffffffffffffffffffffffff1614151561031257600080fd5b600460009054906101000a900473ffffffffffffffffffffffffffffffffffffffff16905090565b3373ffffffffffffffffffffffffffffffffffffffff16600460009054906101000a900473ffffffffffffffffffffffffffffffffffffffff1673ffffffffffffffffffffffffffffffffffffffff1614151561039657600080fd5b80600190805190602001906103ac929190610695565b5050565b60025481565b3373ffffffffffffffffffffffffffffffffffffffff16600460009054906101000a900473ffffffffffffffffffffffffffffffffffffffff1673ffffffffffffffffffffffffffffffffffffffff161415151561041357600080fd5b60001515600560003373ffffffffffffffffffffffffffffffffffffffff1673ffffffffffffffffffffffffffffffffffffffff16815260200190815260200160002060009054906101000a900460ff16151514151561047257600080fd5b6001600560003373ffffffffffffffffffffffffffffffffffffffff1673ffffffffffffffffffffffffffffffffffffffff16815260200190815260200160002060006101000a81548160ff0219169083151502179055506001600260008282540192505081905550565b60008054600181600116156101000203166002900480601f0160208091040260200160405190810160405280929190818152602001828054600181600116156101000203166002900480156105735780601f1061054857610100808354040283529160200191610573565b820191906000526020600020905b81548152906001019060200180831161055657829003601f168201915b505050505081565b60018054600181600116156101000203166002900480601f0160208091040260200160405190810160405280929190818152602001828054600181600116156101000203166002900480156106115780601f106105e657610100808354040283529160200191610611565b820191906000526020600020905b8154815290600101906020018083116105f457829003601f168201915b505050505081565b600354341015151561062a57600080fd5b600460009054906101000a900473ffffffffffffffffffffffffffffffffffffffff1673ffffffffffffffffffffffffffffffffffffffff166108fc349081150290604051600060405180830381858888f19350505050158015610692573d6000803e3d6000fd5b50565b828054600181600116156101000203166002900490600052602060002090601f016020900481019282601f106106d657805160ff1916838001178555610704565b82800160010185558215610704579182015b828111156107035782518255916020019190600101906106e8565b5b5090506107119190610715565b5090565b61073791905b8082111561073357600081600090555060010161071b565b5090565b905600a165627a7a7230582009704db63b505c5aa79a11ae8b9593948b0509bc5d8de8c0d24ef9a6b37332280029",
  "source": "pragma solidity ^0.4.24;\n\ncontract BlockPoem {\n  string public poem;\n  string public extraMessage;\n  uint public numberOfLikes;\n  uint private minimumDonation;\n\n  address private writer;\n  mapping(address => bool) private fans;\n\n  // Events\n  event Like(address fan);\n  event Donation(uint amount);\n\n  // Modifiers\n  modifier onlyOwner() {\n    require(writer == msg.sender);\n    _;\n  }\n\n  modifier notOwner() {\n    require(writer != msg.sender);\n    _;\n  }\n\n  modifier notFan() {\n    require(fans[msg.sender] == false);\n    _;\n  }\n\n  constructor(string _thePoem, address _theWriter) public {\n    poem = _thePoem;\n    writer = _theWriter;\n    //this uint, denominated in wei, is .0001 ether\n    minimumDonation = 100000000000000;\n\n    // I didn't use msg.sender here because a factory contract is sender, not\n    // the writer\n  }\n\n  /** @dev Returns the writer's address.\n    */\n  function verifyOwner() onlyOwner public view returns (address) {\n    return writer;\n  }\n\n  /** @dev Adds an extra message to the BlockPoem.\n    * @param _extraMessage The poem's extra message text.\n    */\n  function addMessage(string _extraMessage) onlyOwner public {\n    extraMessage = _extraMessage;\n  }\n\n  /** @dev Increments the BlockPoem's number of likes and adds a fan to its mapping.\n    */\n  function like() notOwner notFan public {\n    fans[msg.sender] = true;\n    numberOfLikes += 1;\n  }\n\n  /** @dev Donates ether to the BlockPoem's writer.\n    */\n  function donate() public payable {\n    require(msg.value >= minimumDonation);\n    writer.transfer(msg.value);\n  }\n}\n",
  "sourcePath": "/Users/diegomartin1/BlockPoems/contracts/BlockPoem.sol",
  "compiler": {
    "name": "solc",
    "version": "0.4.24+commit.e67f0147.Emscripten.clang"
  },
  "schemaVersion": "2.0.0",
  "updatedAt": "2018-08-17T11:48:05.616Z"
}