{
  "contractName": "LibraryDemo",
  "abi": [
    {
      "constant": true,
      "inputs": [
        {
          "name": "a",
          "type": "uint256"
        },
        {
          "name": "b",
          "type": "uint256"
        }
      ],
      "name": "exec",
      "outputs": [
        {
          "name": "",
          "type": "uint256"
        }
      ],
      "payable": false,
      "stateMutability": "pure",
      "type": "function"
    }
  ],
  "bytecode": "0x608060405234801561001057600080fd5b5060ee8061001f6000396000f300608060405260043610603f576000357c0100000000000000000000000000000000000000000000000000000000900463ffffffff16806398757832146044575b600080fd5b348015604f57600080fd5b5060766004803603810190808035906020019092919080359060200190929190505050608c565b6040518082815260200191505060405180910390f35b6000609f828460a790919063ffffffff16565b905092915050565b6000818301905082811015151560b957fe5b809050929150505600a165627a7a7230582026c56520f7e362a3684c57fa9378686b42dab74cbd493f404b3bd0174665544b0029",
  "source": "pragma solidity ^0.4.24;\n\nimport 'zeppelin-solidity/contracts/math/SafeMath.sol';\n\ncontract LibraryDemo {\n  using SafeMath for uint;\n    function exec(uint a, uint b) public pure returns (uint){\n        return a.add(b);\n    }\n}\n",
  "sourcePath": "/Users/diegomartin1/BlockPoems/contracts/LibraryDemo.sol",
  "compiler": {
    "name": "solc",
    "version": "0.4.24+commit.e67f0147.Emscripten.clang"
  },
  "schemaVersion": "2.0.0",
  "updatedAt": "2018-08-18T16:47:22.311Z"
}